:020000040800F2
:10000000F0FF0120D9BF0508DDD8000831610408E0
:1000100051C0050851C0050851C005080000000086
:10002000000000000000000000000000D9D8000817
:10003000D5D8000800000000D1D800082125040808
:1000400051C0050851C0050851C0050851C0050838
:1000500051C0050851C00508E57104081173040872
:10006000D5720408997204085D7204085D8305085E
:100070004D8305083D8305082D8305081983050870
:1000800005830508F182050851C00508000000003D
:1000900000000000000000000000000021720408C1
:1000A000F50D0408410E0408E50D0408650E04086A
:1000B000350E0408250E0408150E040849AF05087E
:1000C00051AF05083DAF050845AF050851C005080B
:1000D00051C00508412604088525040800000000D9
:1000E000A971040851C00508A5110108000000000D
:1000F000000000000000000000000000DD82050894
:100100000000000051C00508050E040851C0050894
:1001100000000000000000000000000000000000DF
:10012000C9820508B5820508A18205088D820508E7
:1001300079820508000000000000000000000000B7
:10014000000000000000000000000000E1EF0008D7
:1001500065820508518205083D82050851C00508E1
:1001600031AF050839AF05080000000000000000AD
:10017000000000000000000000000000000000007F
:100180000000000051C00508000000000000000051
:0801900051C0050851C005082B
:0801980078BB05000100000026
:1001A0000B3001001A0000005C380020C461002000
:1001B00000000000200900081F300100240000009A
:1001C00024380020E0610020000000003C09000805
:1001D0000502010004000000205F002004620020EE
:1001E0000000000060090008030101000A0000008F
:1001F000A83700200862002000000000F98C0008E9
:1002000013020100040000000C22002014620020F0
:1002100000000000640900080D1001003400000017
:10022000B85300201862002000000000B5900308B9
:100230000400080080000000105300204C620020E1
:1002400000000000000000000902010001000000A1
:10025000445E0020CC620020000000006809000815
:10026000F901010004000000EC520020D0620020DF
:1002700000000000C9F40308FB01010001000000B8
:1002800030510020D462002000000000A10B0508BE
:10029000FC01010009000000FC4F0020D862002092
:1002A00000000000B10B0508F70101000600000086
:1002B000F04F0020E4620020000000006A090008FE
:1002C000160215003F0000006C2D0020EC6200209B
:1002D00000000000810C050834000100100000003F
:1002E000204F00202C63002000000000AD3D0208DC
:1002F0001102010008000000F84E00203C630020BD
:100300000000000070090008121201000400000043
:10031000F04E00204463002000000000780900082F
:100320001820010032000000BC4E0020486300206D
:1003300000000000F10C0508FD0101002100000093
:10034000D84700207C6300200000000023F403084D
:10035000122001001500000054450020A063002079
:10036000000000007C090008000201000B000000F2
:1003700090420020B863002000000000F904050846
:100380000A80010028000000803A0020C463002099
:10039000000000001DB50108061001001C0000004F
:1003A000C8270020EC63002000000000CD0B0508EA
:1003B00002020100030000006C2C002008640020F1
:1003C00000000000000000000C020100040000001A
:1003D000282C00200C64002000000000B104050857
:1003E000FE01010014000000B05500201064002040
:1003F0000000000069040508010201000B00000074
:100400009C6F0020947F002000000000E904050894
:100410001B02010010000000886F0020A07F002058
:1004200000000000690505081B1001000C00000019
:1004300058670020B07F002000000000C54D010873
:1004400021020100F0000000D8650020BC7F0020E0
:1004500000000000F92F0108231201001000000025
:10046000B06C0020AC80002000000000940900085F
:10047000371001002E000000F86E0020BC80002024
:1004800000000000A40900080E02010002000000A4
:10049000AC6C0020EC80002000000000D2090008B5
:1004A0001610010006000000A46C0020F08000205F
:1004B00000000000D40900082F10010022000000F5
:1004C000707F0020F880002000000000DA0900089A
:1004D0001E00010009000000946B00201C81002018
:1004E00000000000FC0900080510010006000000E3
:1004F000846B00202881002000000000060A00080C
:10050000F58101006800000068650020308100204E
:1005100000000000313E010823200100100000000F
:10052000506C0020988100200000000031B60108C6
:10053000FD07010076000000AE640020A8810020C5
:1005400000000000F5190108261001000E0000004F
:100550003082002020820020000000006518010881
:10056000F62101000C000000108F0020F08F002009
:10057000000000000C0A00081C0202001C00000021
:10058000CC8E00204090002000000000150E0508D1
:100590001400010004000000C48E00205C900020C4
:1005A00000000000180A0008012001000C000000F3
:1005B0007086002060900020000000001C0A0008E7
:1005C0000EF003009E010000888300206C90002044
:1005D0000000000031360208130001000400000092
:1005E000748C00200C92002000000000280A0008F3
:1005F0000101010004000000D482002010920020BC
:1006000000000000000000000001010004000000E4
:10061000CC82002014920020000000002C0A000868
:100620000201010003000000C8820020189200208F
:1006300000000000A18A0308220201001C01000042
:100640005C8A00201C92002000000000390C050884
:100650000C200600CC0000004C85002038930020C0
:1006600000000000658A0308190001000500000071
:10067000C8A3002010A4002000000000300A0008D9
:100680001A0001000E000000C4A1002018A40020E0
:1006900000000000360A0008203201000A000000B5
:1006A000B8A1002028A40020000000000D36020898
:1006B0001500100070000000089C002034A40020E9
:1006C00000000000000000002A0008006000000098
:1006D000189B0020A4A4002000000000E5350208BB
:1006E0002C0004001000000014A5002004A5002028
:1006F00000000000BD3302082B001200240000009F
:1007000048A5002024A50020000000009133020825
:100710002920140078000000AC9800206CA500206F
:10072000000000000000000019020100100000009D
:10073000D0970020E4A5002000000000C9040508AF
:10074000030001000100000064BE002074C100200D
:100750000000000000000000031201003D00000046
:1007600018BE002078C1002000000000440A0008E4
:1007700025201E002C0100007CBB0020B8C10020F9
:100780000000000000000000101001000200000046
:10079000FCBA0020E4C2002000000000820A000829
:1007A000F82101000600000058BB0020E8C200202C
:1007B00000000000840A0008020001000C00000094
:1007C00040C60020D4C60020000000000000000049
:1007D0002902010040000000A0C50020E0C6002062
:1007E000000000008A0A00080A020100140000004C
:1007F00098C4002040C7002000000000C98C0308F6
:10080000280204000400000084CF002028D100202A
:100810000000000065050508270204000400000030
:1008200080CF00202CD100200000000059050508D1
:100830001F02080010000000DCCC002030D1002096
:1008400000000000910405081A0201003C000000AD
:1008500080C8002040D1002000000000790D05086C
:1008600038100100010000006CC700207CD100207E
:1008700000000000CA0A0008270001000400000070
:10088000A4D1002004D2002000000000CC0A0008FF
:100890000B1201003C000000B0D20020D8DF002085
:1008A00000000000D00A000807020100020000005A
:1008B000C0DF002014E00020000000000C0B000846
:1008C0001D0202000600000090DF002018E000205A
:1008D0000000000000000000060203000C00000001
:1008E000A8DF002020E3002000000000610D0508C3
:1008F000081203000F00000098DF00202CE3002006
:1009000000000000010505081002010001000000C0
:1009100070F700206CF70020000000000E0B0008AC
:10092000AE014A015E012C016401010000000100DA
:100930000A019A01001E0A000002000000000000E7
:10094000000100000005000001020300000000009B
:100950000000000000000000000000000080070010
:100960000000000000000100000000000100000085
:100970000000000001010101FFFFFFFF0000000176
:10098000000105494652434634525800000800020F
:100990000000000000000000000000000000000057
:1009A0000000000020003200C800D00796001400AC
:1009B000320028004C0440060005500014000F00CF
:1009C000080064000100000005000A000000F401B6
:1009D00096000000C409000019000000000000009B
:1009E0000000000000000000000000000000000007
:1009F00000000000000000000000000000050100F1
:100A000000000000000020000301000000000000C2
:100A1000010000000202000003000023E80364005C
:100A2000040A000114001E0000044432B400000057
:100A30000000280100007E05EA05B4053200E80345
:100A4000D0070000000000000000000000000000CF
:100A50000000000000000000000000000000000096
:100A60000000000000000000000000000000000086
:100A70000000000000000000000000000000000076
:100A8000010000050201F401140000000000000054
:100A90000000000000000000000000000000000056
:100AA0000000000000000000000000000000000046
:100AB0000000000000000000000000000000000036
:100AC0000000000000000000000000002003000003
:100AD0000000000000000000000000000000000016
:100AE0000000000000000000000000000000000006
:100AF00000000000000000000000000000000000F6
:0F0B0000000000000000000000180000013C0091
:100B0F000403090412010002EF020140830456326C
:100B1F000002010203010000120100020202004064
:100B2F008304405700020102030100000902640020
:100B3F00030100C032090400000103000000092175
:100B4F00110100012236000705830309000A080B73
:100B5F000102020201000904010001020201000565
:100B6F0024001001052401000204240202052406BA
:100B7F000102070582030800FF09040200020A00B0
:100B8F000000070501024000000705810240000038
:100B9F0009024300020100C03209040000010202F1
:100BAF0001000524001001052401000104240202A4
:100BBF000524060001070582030800FF0904010050
:100BCF00020A00000007050102400000070581022C
:100BDF0040000000FF00000000FF000000000000C8
:100BEF000000AA550701000001000800AA550501E1
:100BFF000000080008F70508FF1FFF1F7D00000019
:100C0F00010000000D830008098300080583000818
:100C1F00F9820008F582000801830008FD820008B0
:100C2F0081830008758300084D83000861830008E5
:100C3F003983000825830008118300080100000094
:100C4F000000803F05010905A101A1000501093040
:100C5F000931093209330935093409360937158144
:100C6F00257F7508950881020509190129081500C6
:100C7F002501950875018102C0C0000009022200FC
:100C8F00010100E032090400000103010200092103
:100C9F00110100012236000705830309000A000035
:100CAF0000600240106002400000000000000000E1
:100CBF00000B00000000000000000000000000001A
:100CCF0000600240286002400100000000000000A8
:100CDF00060C0000000000000000000000000000F3
:100CEF00006002404060024002000000000000006F
:100CFF00100D0000000000000000000000000000C8
:100D0F000060024058600240030000000000000035
:100D1F00160E0000000000000000000000000000A0
:100D2F0000600240706002400400000000000000FC
:100D3F00200F000000000000000000000000000075
:100D4F0000600240886002400500000000000000C3
:100D5F00261000000000000000000000000000004E
:100D6F0000600240A060024006000000000000008A
:100D7F003011000000000000000000000000000023
:100D8F0000600240B8600240070000000000000051
:100D9F00362F0000000000000000000000000000DF
:100DAF0000640240106402400000000000000000D8
:100DBF0000380000000000000000000000000000EC
:100DCF00006402402864024001000000000000009F
:100DDF0006390000000000000000000000000000C5
:100DEF000064024040640240020000000000000066
:100DFF00103A00000000000000000000000000009A
:100E0F00006402405864024003000000000000002C
:100E1F00163B000000000000000000000000000072
:100E2F0000640240706402400400000000000000F3
:100E3F00203C000000000000000000000000000047
:100E4F0000640240886402400500000000000000BA
:100E5F002644000000000000000000000000000019
:100E6F0000640240A0640240060000000000000081
:100E7F0030450000000000000000000000000000EE
:100E8F0000640240B8640240070000000000000048
:100E9F0036460000000000000000000000000000C7
:100EAF000000000001020304010203040607080901
:100EBF009DDA000859E10008D1DC000829840008F8
:100ECF00098A000839840008558400080184000845
:100EDF00F183000800000000000000002D202D2DE0
:100EEF00202D2D2D2D202D2D2D2D0000000000004B
:100EFF000000000000000000000000AA550B0100D8
:100F0F0000AA5505010000AA550902000000AA55C4
:100F1F0003009F0001000000C0120000BC61002010
:100F2F00000000009461002000000000010000009C
:100F3F0000000100E0017EFFFFFFFFFFFF00000048
:100F4F00FFFFFFFF080100004C920608C89106083A
:100F5F0000000000298B0308A08601000400000098
:100F6F000000000000000000000000000000000072
:100F7F000000000000000000000000000000000062
:100F8F0000000000000000004C9206085492060872
:100F9F000000000085F20308E803000004000000D1
:100FAF000000000000000000000000000000000032
:100FBF000000000000000000000000000000000022
:100FCF0000000000000000005C9206080000000016
:100FDF000000000029E902087D000000FF0000006A
:100FEF0000000000000000000000000000000000F2
:100FFF0000000000000000000000000000000000E2
:10100F000000000000000000F0C40608000000000F
:10101F0000000000B5FD02087D000000FF00000089
:10102F0000000000000000000000000000000000B1
:10103F0000000000000000000000000000000000A1
:10104F00000000000000000084A20608000000005D
:10105F0000000000114503087D000000FF000000A4
:10106F000000000000000000000000000000000071
:10107F000000000000000000000000000000000061
:10108F00000000000000000064920608000000004D
:10109F0000000000B9FC0308E80300000300000093
:1010AF000000000000000000000000000000000031
:1010BF000000000000000000000000000000000021
:1010CF000000000000000000689206080000000009
:1010DF000000000071B80208102700000300000094
:1010EF0000000000000000000000000000000000F1
:1010FF0000000000000000000000000000000000E1
:10110F000000000000000000F8C00608000000000A
:10111F009D2F0208956104085F760000050000000E
:10112F0000000000000000000000000000000000B0
:10113F0000000000000000000000000000000000A0
:10114F00000000000000000094C40608000000002A
:10115F0000000000F18604081027000001000000C5
:10116F000000000000000000000000000000000070
:10117F000000000000000000000000000000000060
:10118F00000000000000000074920608000000003C
:10119F000000000089F20308E803000005000000CA
:1011AF000000000000000000000000000000000030
:1011BF000000000000000000000000000000000020
:1011CF0000000000000000008092060800000000F0
:1011DF00000000001D8F0308204E000003000000D8
:1011EF0000000000000000000000000000000000F0
:1011FF0000000000000000000000000000000000E0
:10120F00000000000000000090920608000000009F
:10121F0000000000058D0308204E000003000000B1
:10122F0000000000000000000000000000000000AF
:10123F00000000000000000000000000000000009F
:10124F000000000000000000A0920608000000004F
:10125F0000000000CD020408400D03000300000051
:10126F00000000000000000000000000000000006F
:10127F00000000000000000000000000000000005F
:10128F000000000000000000B092060800000000FF
:10129F000000000045C103081027000001000000F6
:1012AF00000000000000000000000000000000002F
:1012BF00000000000000000000000000000000001F
:1012CF000000000000000000F4910608000000007C
:1012DF0000000000AD5901081027000003000000B6
:1012EF0000000000000000000000000000000000EF
:1012FF0000000000000000000000000000000000DF
:10130F000000000000000000B89206080000000076
:10131F000000000041FB030850C300000100000063
:10132F0000000000000000000000000000000000AE
:10133F00000000000000000000000000000000009E
:10134F000000000000000000C0920608000000002E
:10135F00000000002DF70308A86100000100000045
:10136F00000000000000000000000000000000006E
:10137F00000000000000000000000000000000005E
:10138F000000000000000000CC92060800000000E2
:10139F000000000095EC0108A0860100010000008C
:1013AF00000000000000000000000000000000002E
:1013BF00000000000000000000000000000000001E
:1013CF000000000000000000D89206080000000096
:1013DF0000000000012C0408A00F00000100000015
:1013EF0000000000000000000000000000000000EE
:1013FF0000000000000000000000000000000000DE
:10140F000000000000000000E49206080000000049
:10141F00000000006997010810270000010000007C
:10142F0000000000000000000000000000000000AD
:10143F00000000000000000000000000000000009D
:10144F000000000000000000F092060800000000FD
:10145F0000000000898F01081A4100000100000000
:10146F00000000000000000000000000000000006D
:10147F00000000000000000000000000000000005D
:10148F000000000000000000F492060800000000B9
:10149F00000000002D8D0008102700000100000043
:1014AF00000000000000000000000000000000002D
:1014BF00000000000000000000000000000000001D
:1014CF000000000000000000DC9106080000000092
:1014DF000000000001F6010850C3000001000000E9
:1014EF0000000000000000000000000000000000ED
:1014FF0000000000000000000000000000000000DD
:10150F00000000000000000000930608000000002B
:10151F00000000004D9A0008400D0300000000007D
:10152F0000000000000000000000000000000000AC
:10153F00000000000000000000000000000000009C
:10154F0000000000000000000893060800000000E3
:10155F00000000006D8B0308400D03000000000029
:10156F00000000000000000000000000000000006C
:10157F00000000000000000000000000000000005C
:10158F00000000000000000010930608000000009B
:10159F000000000019A3010850C300000300000061
:1015AF00000000000000000000000000000000002C
:1015BF00000000000000000000000000000000001C
:1015CF0000000000000000001C930608000000004F
:1015DF0000000000E99F030840420F0000000000D8
:1015EF0000000000000000000000000000000000EC
:1015FF0000000000000000000000000000000000DC
:10160F000000000000000000289306080000000002
:10161F0000000000DD93030850C30000000000002D
:10162F0000000000000000000000000000000000AB
:10163F00000000000000000000000000000000009B
:10164F00000000000000000001FF01000100000089
:10165F009DAB0108000000000000000038040608E0
:10166F00000000000000000000000000A41D06089C
:10167F000000000000000000000000005C1E0608D3
:10168F00000000000000000000000000081E060817
:10169F000000000000000000D1BE0108DD8800201E
:1016AF000101000011D70108000000000000000038
:1016BF00301F060839DA01080000000000000000A2
:1016CF00E81E06082D202D2D202D2D2D2D202D2D02
:1016DF002D000000000000000000000000000000CE
:1016EF0000000000FFFFFFFF75C5010800000000AC
:1016FF0000000000341D060801000000FA00000081
:10170F0001000000010000000101000000010101C3
:10171F0000FF0000688600200000F40101000000B7
:10172F00668600200000F40101000000648600209E
:10173F000000F40101000000628600200000F401A7
:10174F0001000000608600200000F401010000008D
:10175F005E8600200000F401010000005C8600207E
:10176F000000F4010100000089B301084DB3010826
:10177F0000000000F80906084C8600200532010021
:10178F005A8600206400F4010100000058860020F2
:10179F006400C409010000004A860020E803D00756
:1017AF000100000048860020E803D0070100000078
:1017BF0046860020E803D007010000004486002081
:1017CF001E00B80B010000005286002005000F001C
:1017DF00010000005486002003000A0001000000F1
:1017EF00428600201E00F4010100000056860020F2
:1017FF0002000000840A06084086002014006400DE
:10180F00010000004E8600203200E80301000000B6
:10181F003E8600200000C80001000000498500201E
:10182F0000C80100488500200050010047850020B6
:10183F00005A01004585002002000000900A0608AA
:10184F00D4990608DC9906085A5500200100C409EE
:10185F0000000000585500200100C40900000000DE
:10186F00565500200100C409000000005455002007
:10187F000100C40900000000505500200100C409F8
:10188F0000000000525500200100C40900000000B4
:10189F004E5500200100C409000000004C550020E7
:1018AF000100C40900000000F382002000C80100FD
:1018BF00F282002000C80100F08200200000FFFF2C
:1018CF000A000000EE8200200100C80001000000A5
:1018DF00EC8200203200307532000000EA820020D6
:1018EF007EFF140005000000E882002005002C0197
:1018FF0005000000E6820020055A0500E382002063
:10190F0000FF0100E582002002000000D80E002039
:10191F00E18200200300000058FE0508E28200204B
:10192F0000FF0100E482002002000000D80E00201A
:10193F00E08200200300000058FE0508DDB2010818
:10194F006DB20108000000009C0A06088086002086
:10195F00EE02CA08010000007E86002000C80100C8
:10196F00640000007D86002000C8010064000000B4
:10197F007C86002002000000A80B0608DA820020F7
:10198F000000803E05000000D882002080C1803E0C
:10199F0005000000D28200200083007D05000000BA
:1019AF00D082002080C1803E05000000CB82002045
:1019BF0000FF0100C48200206400F4010100000058
:1019CF00C282002004000000B40B0608C182002070
:1019DF0002000000C80B0608798300200D000000EC
:1019EF00D40B060876830020006401007483002066
:1019FF00320010270A000000728300200D00000043
:101A0F00D40B0608718300200D000000D40B0608CC
:101A1F0070830020020000000C0C06088686002050
:101A2F003E000000180C0608848600200100FF7F8E
:101A3F00010000008386002002000000140D06083C
:101A4F007B83002003000000240D06087A8300200A
:101A5F0003000000240D060836850020000A01004F
:101A6F00348500200000E8030100000032850020CB
:101A7F000000E80301000000308500200000E803AB
:101A8F00010000002E8500200000E8030100000087
:101A9F00268500200000E803010000002C850020AF
:101AAF000000E803010000002A8500200000E80381
:101ABF00010000002885002000140100448500204B
:101ACF0002000000340D0608428500200000F401DA
:101ADF0001000000408500200000F401010000001B
:101AEF003E8500200000F401010000003C8500202D
:101AFF000000F401010000003A8500200000A00F53
:101B0F0001000000388500200000A00F0100000038
:101B1F002B860020196401002A8600200200000095
:101B2F00400D060828860020E803D0070A000000B1
:101B3F0026860020006401000A0000001B8600209A
:101B4F00006401001A860020006401002286002034
:101B5F00006401000A0000002186002000640100DB
:101B6F000A00000020860020006401000A00000027
:101B7F002586002000FF01000A00000024860020B7
:101B8F0000FF01000A0000002386002000FF010073
:101B9F000A0000001F86002001FF01000A0000005C
:101BAF001E86002001FF01000A0000001D86002094
:101BBF0001FF01000A000000848300200000F401EF
:101BCF0001000000828300200000A00F0100000030
:101BDF00808300200000A00F010000007E83002002
:101BEF000000A00F010000007C8300200000A00F68
:101BFF00010000002589002000C801002489002071
:101C0F000064010023890020006401002289002064
:101C1F000064010021890020006401002089002058
:101C2F00FF0801001F89002001640100D5B10108E0
:101C3F0099B10108000000004C0D0608288900200A
:101C4F00013201002789002001000000BC0D0608A9
:101C5F002689002004000000C40D06081E890020FC
:101C6F00006401001C8900201400E803010000003B
:101C7F001A890020E80330750A0000001989002036
:101C8F0000C801001889002000C801001789002032
:101C9F0000C8010016890020003201002A890020A7
:101CAF00004B01002989002004000000D80D060810
:101CBF0015890020006401000A0000003889002007
:101CCF000000D007010000003389002000C8010088
:101CDF003289002000C801003189002000C80100AE
:101CEF00368900200000D007010000003089002055
:101CFF0000C801002F89002000C801002E89002094
:101D0F0000C80100348900200000D0070100000046
:101D1F002D89002000C801002C89002000C8010077
:101D2F002B89002000C801008DAF010875AF010895
:101D3F0000000000EC0D06086D830020005A010022
:101D4F006C83002000C801006A830020E803D007DD
:101D5F0001000000000000000000000011BF01089A
:101D6F00880E060849464C4947485446343131528B
:101D7F0058000000DF82002000030100DE820020F7
:101D8F0000030100B1AE010865AE010800000000BC
:101D9F00DC0E060825AE0108DDAD010800000000CD
:101DAF00780F0608FDAE010859C5010800000000B4
:101DBF00F80F0608DC8200200103010065B401085A
:101DCF0039B40108000000005013060861AD010886
:101DDF0015AD010800000000C01306089DAF0108F3
:101DEF000DE30108000000005C140608DDBF0108C8
:101DFF0091B401080000000004150608EDAF0108BA
:101E0F00000000000000000084150608C9B001089A
:101E1F0071B0010800000000E81506085DB1010867
:101E2F0021B101080000000090160608B521020834
:101E3F0011B20108000000001C1706083D860020A3
:101E4F000106010035B0010801B0010800000000D3
:101E5F0018180608E9200208F5C60108000000005E
:101E6F0088180608FD210208BDC701080000000000
:101E7F00D81906083C8600200103010045AF010870
:101E8F0015AF010800000000AC1A06085522020821
:101E9F000000000000000000101B0608ADAD010897
:101EAF0041C5010800000000901B0608000000005B
:101EBF0000000000000000001C1C060845B20108CD
:101ECF0035C80108000000008C1C06080000000047
:101EDF000000000000000000A41E0608CC5E0020D9
:101EEF009CFF2C01000000000C8C0020E0150C174B
:101EFF00000000007088002002000000DC1E0608B1
:101F0F00BC82002088136F1701000000BE820020E2
:101F1F0088136F17000000009A37002000000000A0
:101F2F0000000000983700200000000000000000B3
:101F3F0096370020000000000000000094370020BA
:101F4F000000000000000000923700200000000099
:101F5F00000000009037002000000000000000008B
:101F6F00B0050020000000000000000044820020A7
:101F7F0003000000CC1F0608B482002088136F17DF
:101F8F0001000000165F002088136F17000000008B
:101F9F0055AC01080000000000000000DC1F06081F
:101FAF00718800200100000030200608185F002013
:101FBF00010000003C2006080E5F00200200000018
:101FCF004420060800000000000000000000000090
:101FDF00502006083DAC0108000000000000000082
:101FEF00EC200608000000000000000000000000C8
:101FFF004021060800000000000000000000000063
:10200F00B0210608C082002002000000E821060867
:10201F00125F0020E0150C17000000000C94002048
:10202F0060940020D6010101F4A500200000803F3C
:10203F000000000000000000000000000000000091
:10204F000000000000000000000000000000000081
:10205F00000000000000803F0000000000000000B2
:10206F00000000000000803F0000000000000000A2
:10207F00000000000000803F000000000000000092
:10208F0000000000010000000000FA430000FA43C6
:10209F000000803F55C3030800000000000000004F
:1020AF0000000000FFFFFFFFFF000000FFFFFFFF2A
:1020BF000000000030C700200800000000000000F2
:1020CF0020C700200800000020000000D58900086C
:1020DF00B5880008B1DC000800000000ED8300089F
:1020EF0069DA00082D880008D1D900080000000027
:1020FF0000000000A98300084589000875880008C2
:10210F00FDDB000800000000C1830008D5D90008DE
:10211F000188000825D90008000000000000000019
:10212F00B5830008685E0C0002010000A00F0000DC
:10213F00B80B000002FFFF01ECC006080000080208
:10214F000503030000000000F4C0060801000802A8
:10215F00050403000000000054B706080200FE014A
:10216F000110030000000000349D06080300140254
:10217F000003000000000000FCC0060804001F025E
:10218F00020008000000000004C1060805001F023D
:10219F000201080000000000FFFF0000FFFFFFFF2B
:1021AF000101000050C300000101FF01F401000014
:1021BF00FF000000106B0608000004010000000083
:1021CF0000000002100000000700000000000000E7
:1021DF0000000000010203040607080901000000C7
:1021EF007C1800200000000000000000000000002C
:1021FF0000000000000000000000000000000000D0
:10220F0000000000000000000000000000000000BF
:10221F0000000000000000000000000000000000AF
:10222F00000000000000000000000000000000009F
:10223F00000000000000000000000000000000008F
:04224F00000000008B
:082800000000000000000000D0
:10800000134B0268196821EA02011960596821EAD4
:108010000201596019680A431A609968026821EAE6
:1080200002019960D96821EA0201D96041791029D9
:1080300007D001F1804303F59E3319680A431A60A3
:108040007047996811439960D9680A43DA607047AC
:10805000003C01402DE9F04700230F6801264FF056
:10806000030C02E00133102B41D006FA03F232EA8E
:108070000704F7D1D0F800E05C000CFA04F52EEA12
:10808000050EC0F800E091F80490D0F800A009FABD
:1080900004FE09F1FF394EEA0A0EB9F1010FA846B4
:1080A000C0F800E06FEA050515D8D0F808E005EA49
:1080B0000E0585604D79D0F808E0A54045EA0E052B
:1080C0008560456825EA020242608A7945689A40DF
:1080D00092B22A434260C26822EA0802C260CA79A8
:1080E000C568A24001332A43102BC260BDD1BDE850
:1080F000F08700BF037830B403B30246C0F1010536
:10810000531912F8014FDBB2002CF9D101335B0097
:10811000DAB20C4C0B80032322706370017859B1E2
:10812000022300255A1CD2B2E154A55410F8011FB5
:108130000233DBB20029F5D130BC7047022213466E
:10814000E7E700BFE0180020084AD2E94031994231
:108150000AD0D118013391F808110170C3F30A0352
:10816000C2F800310120704700207047E01800205D
:10817000064AD2F80839D2F80C29934294BF4FF43A
:1081800000600020013B9B1A18447047E018002053
:10819000012380F85130704707B501A8FFF7D4FFDD
:1081A0000028FAD09DF8040003B05DF804FB044BEE
:1081B000D3E94003984288BF03F50063181A70475B
:1081C000E018002001207047024BC3F81029C3F8C3
:1081D00014197047E0180020024BC3F81829C3F89F
:1081E0001C197047E01800207047704730B4134DD9
:1081F000D5E940239A4286BF03F50064A21A9A1A71
:108200000A44B2F5006F13D8A9B101444A1E0138DF
:1082100010F8014FE918824203F1010381F8084187
:10822000C3F30A03F4D1C5F80431002030BC704711
:10823000022030BC70470846F8E700BFE018002075
:10824000212838B50C4605D022282ED0202813D05E
:10825000002038BD0029FBD0072AF9D11A4BD3F8EA
:10826000200993F8241993F8252993F826392060DA
:1082700021716271A371EBE70029E9D0072AE7D1E8
:10828000114DD5F814391BB10968D5F81009984774
:10829000206821796279A379C5F8200985F8241925
:1082A00085F8252985F82639D2E70029D0D0022A79
:1082B000CED1054AD2F81C39002BC9D00988D2F892
:1082C00018099847C4E700BFE0180020024B0020BF
:1082D000C3F82809704700BFE0180020044B0020B5
:1082E0000522C3F82829C3F81C09C3F814097047EC
:1082F000E0180020704700BF704700BF704700BF04
:10830000704700BF704700BF704700BF704700BF95
:1083100008B50248FFF7EEFE014808BD508D06087B
:10832000E018002008B50248FFF7E4FE014808BD48
:10833000608D0608E018002008B50248FFF7DAFE55
:10834000014808BD6C8D0608E018002008B50248F9
:10835000FFF7D0FE014808BD788D0608E018002020
:1083600008B50248FFF7C6FE014808BD848D06081F
:10837000E0180020042301480B807047980100207A
:1083800010B4074A074B92F82C09122403F1140287
:108390000C8001280CBF184610465DF8044B70474E
:1083A000E01800209C010020642301480B807047E6
:1083B000C4010020432301480B807047280200209D
:1083C00010B5084CD4F8D400FF2809D00649D1F8DC
:1083D000302901F63411FFF733FFFF23C4F8D430FE
:1083E000002010BD98010020E0180020E8E700BF41
:1083F00008B5D0F8E4355B6A9847002008BD00BF97
:1084000008B5D0F8E4351B6A9847002008BD00BFC6
:10841000D0F8E43510B504461B689847D4F8E83521
:108420009B689847002010BD08B5D0F8E435DB699B
:1084300003B19847002008BD08B5042290F8121136
:10844000D0F8E83580F8131180F81221DB689847DE
:10845000002008BD10B5D0F8E83504461B699847E0
:10846000032384F81231002010BD00BF0B0617D47F
:1084700001EB810300EBC30310B400EB8100012486
:10848000002283F8764383F8741383F87523426DD2
:108490005DF8044B136843F4001300201360704729
:1084A00001F07F0101EB810300EBC303012200EB2C
:1084B000810083F81C1183F81E2183F81D21826935
:1084C0001368002B01DA43F0804343F40013136078
:1084D0000020704782B00023016801930B6901936B
:1084E0000E4B03E00A690192013B13D0019A002A66
:1084F000F8DA019A094B42F001020192019A0A61ED
:108500000A69019203E00A690192013B02D0019AD3
:10851000D207F8D4002002B0704700BF400D03001E
:10852000436D064A1A61C278012A06D100F2CC5086
:1085300058614FF0802219681A607047180008606F
:1085400010B580210446FFF791FF20460021FFF778
:108550008DFF2046BDE81040E2E700BF70B44B78C5
:10856000012B26D00B784A6900EB83035C6D2568EC
:108570002369D2B18A684A6102F07F0223F40023A2
:1085800023F07F0342F4002213432361C378012BBD
:1085900004BF0B696361C5F3076363F07B0363F397
:1085A0001F652560002070BC70478A6802F07F025A
:1085B000E4E782694C691568136944B38E68B44274
:1085C0008CBF06F07F0404F07F0423F4002323F023
:1085D0007F0344F4002443EA040388BF4E6113611F
:1085E000C378012B1DD0C5F3076464F07B0464F3EA
:1085F0001F651560002BD5D14B69002BD2D00269C5
:108600000878516B012383400B435363CAE723F47B
:10861000002323F07F0343F400231361C378012B6D
:10862000E1D10B780C6900EB8300C5F30763816926
:1086300063F07B0363F31F654C610020156070BC21
:10864000704700BF2DE9F0434B78012B30D00B78F9
:108650004C6900EB83035E6D356837691CB38B682A
:108660001C44013CB4FBF3F4C4F3090203FB02F322
:10867000C3F312034B61144643EAC44363F31C077C
:108680003761C378012B04BF0B697361CB78012B71
:1086900044D0C5F3076363F07B0363F31F65356064
:1086A0000020BDE8F0838A680124C2F31203E3E7E7
:1086B00091F800804E6900EB880EDEF818C0DCF8F7
:1086C0000050DCF8107076B3D1F80890384A06EB09
:1086D0000904013CB4FBF9F402EAC444C6F31202F3
:1086E0002243CC7807F060473A43012C174649D023
:1086F000CCF81020C278012A55D00269516B03FAD8
:1087000008F30B435363C5F3076363F07B0363F321
:108710001F65CCF800500020BDE8F0834B7973B39F
:1087200045F00055B5E707F0604747F40027CC78DF
:10873000CCF81070C378012B2FD0012CE3D1026943
:108740009268D20554BF45F0005545F08055C5F3F9
:10875000076262F07B0262F31F65CCF80050002BC9
:108760009ED1B0B203308010DEF8D04098D0CA68F5
:1087700052F8041B216001339842F9D190E745F08B
:10878000805586E764F35E77CCF81070C378012BD0
:10879000D5D10A69CCF81420D1E70A69CCF81420A5
:1087A000012CB0D1CBE70B69CCF81430ABE700BF9C
:1087B0000000F81F38B501EB810400EBC4040D463E
:1087C000002184F87453C4F88C1384F87513C4F82A
:1087D0008833C4F88023C3782821012B01FB0501CD
:1087E00008BFEDB201F55D7108BFC4F884231DB95F
:1087F000FFF7B4FE002038BDFFF724FF002038BD8E
:1088000010B501EB8101084A00EBC1010446B1F843
:108810008C131046FFF7EAFC034A2046402301214F
:10882000FFF7C8FF002010BD1C220020E8E700BFB2
:1088300030B44C780022012C154612D0097800EB98
:10884000810401238B40646D63F31F4501696FF35D
:10885000CF322260CB6923EA0503002030BCCB6114
:1088600070470B7800EB83019C4064F30F058C6923
:10887000ECE700BF40F2011310B500F5A271044609
:10888000A0F84431FFF7D4FF0123A4F89C3304F58A
:1088900067712046FFF7CCFF4FF48173A4F86C3169
:1088A00004F5B6712046FFF7C3FFFFF70FFD002068
:1088B00010BD00BF38B540F2031304460D46A0F8C2
:1088C000943100F5CA71FFF7B3FF29462046FFF740
:1088D000D1FF002038BD00BFF0B44B780A78012BDF
:1088E0004FF0000400EB820524D0012393406D6D0E
:1088F00063F31F442E68330415D48A6891F803C0CB
:10890000CF880F49C2F30A0242F0805343F4004378
:108910000CF0030243EA824307F00F0243EA82535A
:1089200031400B432B600369DA691443DC6100209A
:10893000F0BC70479340AD6963F30F04DAE700BF02
:10894000007833EC2DE9F04140F201130446022592
:108950004FF0400801270026A0F84431C0F84C81B0
:1089600080F84751A0F84A7180F8486100F5A2717B
:10897000FFF7B2FF04F56771A4F89C73C4F8A483F1
:1089800084F89F5384F8A0632046FFF7A5FF0822D0
:1089900003234FF48171C4F87421A4F86C1184F896
:1089A0006F3104F5B671A4F872512046FFF794FFB9
:1089B000064B9D83FFF792FC054A43462046394605
:1089C000FFF7F8FE3046BDE8F08100BF98010020B7
:1089D0001C22002070B50323092240F2031604462E
:1089E0000D46C0F89C2180F89731A0F89A31A0F884
:1089F000946100F5CA71FFF76FFF29462046FFF723
:108A0000A1FF002070BD00BF70B5002540260446C0
:108A1000A0F8745380F87753C0F87C6300F55D715B
:108A2000FFF75AFF4FF48073A4F81C3104F58E71E0
:108A3000C4F8246184F81F51A4F822512046FFF79E
:108A40004BFFD4F8E835A078012284F812215B6846
:108A50009847284670BD00BF82B000230193019A59
:108A6000094B42F010020192C168019A0A610A6939
:108A7000019203E00A690192013B02D0019AD206F9
:108A8000F8D4002002B07047400D030082B00023EC
:108A90000193019A0B4B42F020020192019A61F37B
:108AA0008A120192C168019A0A610A69019203E07F
:108AB0000A690192013B02D0019A9206F8D4002083
:108AC00002B07047400D03000E4BDA68D20310D499
:108AD000DA68D1060FD4DA68D20510D4DA6812F059
:108AE000E00F0AD1DB6813F0020F14BF0820092041
:108AF000704701207047062070470720704702200A
:108B0000704700BF003C024000207047704730B102
:108B1000034B93F97C090028D4BF00200120704743
:108B2000E018002008B5FFF7F2FF60B1064A92F89E
:108B30007D3992F87E295B0003F00203002A18BFFA
:108B400043F001030B6008BDE018002008B5FFF7F3
:108B5000DEFF18B1024BD3F880390B8008BD00BF8F
:108B6000E018002070B5FFF7D2FF90B1094AB2F8C3
:108B7000845975B1D2F888690023B3421C4608DADB
:108B800002EB44040133B4F88C49AC42DBB2F4D3B9
:108B90000B7070BDE018002008B5FFF7B8FF10B1EA
:108BA00000230B70137008BD0420704728B1034BDD
:108BB00093F9D800003818BF0120704798010020B1
:108BC00008B5FFF7F3FF50B1054B93F9D820012A00
:108BD000C3BF93F8DB30C3F340030B60002008BD34
:108BE0009801002008B5FFF7E1FF18B1024B93F898
:108BF000DA300B7008BD00BF9801002070B5FFF798
:108C0000D5FF38B10E4C94F8DB30DB0703D50023D9
:108C10000B70137070BD0B4D94F9D93095F89C69A9
:108C200093FBF6F301330B7094F9D94095F89C1936
:108C300094FBF1F301FB134301331370EAE700BF28
:108C400098010020E01800200320704770B50B4AFF
:108C500092F8A03906255E1CB6FBF5F405FB1464FA
:108C600092F8A159AC4207D002EBC30382F8A049A5
:108C7000C3F8A409C3F8A81970BD00BFE01800200C
:108C8000002230B504461046914200DC30BDA35CA2
:108C90000825584010F0800F4FEA400318BF83F0BA
:108CA000D503013DD8B2F5D10132EDE710B5E9B1F8
:108CB0000F4BD3F8D409814218DCBAB1D3F89C39F0
:108CC0009A4213DC0B4C013A013903FB012184F871
:108CD000E61004F1E2000521FFF7D2FF062184F837
:108CE000E70004F1E200BDE81040AFE710BD00BFAF
:108CF000E018002098010020002303808370838007
:108D0000C3800372704700BF074A92F8D83992F8BF
:108D1000D9190133DBB2994282F8D83904BF002354
:108D200082F8D839704700BFE0180020F8B5794CB8
:108D3000D4F8DC3983B1D4F8E03993F82E305BB144
:108D4000754B94F8E429A3FB0013012A4FEA93130F
:108D500030D0022A08D002B1F8BD704B9842FBD93E
:108D6000012384F8E439F8BDD4F8E82964329A4242
:108D70003ED894F8D83904EB031393F8682EFF2AF1
:108D800006D067490132012083F8682E81F8E80097
:108D9000FFF7BAFF94F85C3E0122092B84F8E4291E
:108DA000DAD1B4F8063F13449BB2A4F8063FA4F806
:108DB000623EF8BD94F8D819C4F8E8398C2303FB57
:108DC000014394F85C0E83F8FE29002604F51F6524
:108DD0000A220223092884F8FA69C4F8EC5984F8B5
:108DE000FB2984F8E439B7D10131A4F8601EF8BD3D
:108DF00094F8FA2994F8FB399A42ADD104F6EF10B1
:108E000004F6F815002310F8012F082153405A00EA
:108E100013F0800F08BF5B0082F0070214BFD3B2CB
:108E2000DBB20139F3D18542EDD194F8F9299A42A8
:108E300039D194F8D869B4F8F35994F8F779B4F8BB
:108E4000F50994F8F83994F8F1C904EB06126DBAF3
:108E500040BA43EA0723ADB294F8F27982F8681E6B
:108E6000C2F86C5E81B22E4D94F9F009C2F8701E02
:108E700047EA0C271BB20121032EA2F86A7EA2F852
:108E8000743E82F8690E85F8E81009D894F85C2ED3
:108E90000C2A2AD00D2A03D104EB4606A6F8600E50
:108EA000FFF732FF5CE794F8D83904EB031393F82B
:108EB000682EFF2A06D01A490132012083F8682E55
:108EC00081F8E800FFF720FF94F85C3E0122092BAF
:108ED00084F8E4297FF440AFB4F8043F13449BB214
:108EE000A4F8043FA4F8643EF8BD94F8021F0D4AAC
:108EF00003EB830303EB830349089B0004EB460663
:108F000093FBF1F382FB0312DB17C3EBA203A6F87A
:108F1000603EC5E7E0180020D34D62103F4B4C0087
:108F200098010020676666660B4B93F8FA1993F870
:108F3000FB2991420ED010B493F8FA29D3F8EC49EA
:108F4000511CD2B2C0B2C9B283F8FA19A0545DF86C
:108F5000044B7047704700BFE0180020FD2870B533
:108F600022D0F02804D0EF2822D00224204670BD61
:108F7000114D0320052641282E444FF0000405F131
:108F8000010580F080030DD0042B0BD9FFF7E6FF1D
:108F90002044B542C4B2E9D015F8010B412880F055
:108FA0008003F1D10420F3E7044D0B200426E2E70F
:108FB000034D0C200626DEE7F4F20508F0F2050862
:108FC000FCF205080E4BD3F80C2FB3F9080F52072B
:108FD00007D400EB8000400080B200F5C87080B27A
:108FE0007047D3F8483F074A323382FB0312D81741
:108FF000C0EBA20080B200F5C87080B2704700BF1D
:10900000E0180020676666660C4AD2F8643F30B408
:109010001C68D2F85C5F5D6019810025611C1960D5
:109020009D812070D2F8643FD2F85C1F1A685A60A4
:109030004FF6F67230BC19609A817047E018002034
:10904000134B10B400220F2483F86A1F090A83F817
:10905000690F83F86B1FC3F86C2FC3F8702FC3F828
:10906000742F83F8684F03F66870012110F8014FE0
:10907000013122440E29D2B2F8D183F8762F054966
:10908000D3F8780F5DF8044B102239F081BD00BF92
:10909000E018002048280020054B002183F87C1FA1
:1090A000C3F8801FD3F8783F03B1C9E7704700BF0A
:1090B000E01800202DE9F041714D724C05F68873DF
:1090C00000214FF4F07285F8841F064620211846CF
:1090D00056F0BDF84FF4F07200F5F070202156F014
:1090E000B6F894F8510210B194F8522212B9002047
:1090F000BDE8F0813CF00AFDC4F85C0228B1827939
:109100000AB1412AF3D12322C280092138F016FC8A
:10911000D4F85C023CF0E4FF94F85232013B5BB2BD
:109120005A1C00F09980022B00F3968004EB031385
:10913000D3F86002544FC4F858020223102184F877
:1091400054324DF0A1F9B7F8EA1050483EF030FB28
:10915000D4F85C023CF0BEFFFF218C204AF04AFAB2
:109160008046D4F85C023CF0BBFFD4F858020421DE
:109170004DF08AF9B8F11B0F05D0D4F85C0220211C
:1091800038F0DCFBB3E7D4F85C32012285F8842F99
:109190000BB12322DA80B7F8EA103C483EF008FB16
:1091A000D4F85C023CF096FF40210A204AF022FAF3
:1091B000FF218A204AF01EFAC0F38013D4F85C0223
:1091C00084F890323CF08CFFD4F8580204214DF022
:1091D0005BF994F85032012B44D0022B3ED0002B87
:1091E00049D095F85C3E182B09D194F89022B7F835
:1091F000EA30A5F8606EA5F8622EA5F8643EB7F8CF
:10920000EA1022483EF0D4FAB7F8EA101F483EF0C0
:10921000CFFAD4F85C023CF05DFF022100204AF056
:10922000E9F9D4F85C023CF05BFFD4F85802042161
:109230004DF02AF994F8952294F8963294F8941205
:1092400084F89112C2F12002C3F1100384F897222E
:1092500084F8983201204BE700206BE70823A7F839
:10926000EA30BEE7002EF9D094F89032002B14BFFC
:1092700008231023F3E71023A7F8EA30B1E700BF73
:10928000E0180020D8290020980100202C2C002074
:1092900008B5044BD3F89C0239F0AAFCB0FA80F070
:1092A000400908BDD82900202DE9F04FCE4DCF4C04
:1092B00084460F4616460FCD2DED068B0FC40FCDFD
:1092C0000FC495E80700CA4B8BB093F8EA3E0596A9
:1092D00084E80700CDE906C7042B00F24B81DFE8E4
:1092E00013F0B001490144010500C0019FEDC18A9E
:1092F000DFEDC18ADFF83483C049C8F8BC12C04929
:10930000C04BC14AC8F8B8120599002918BF1346C6
:1093100038EE887AF5EE006AC6EE879ABB4EC8F83A
:10932000C432BB4B039306F1C0070025DFEDB97AC9
:109330009FEDB99A28EE278AB0EE67AA079BAB4249
:1093400000F00D81039B13F8014B039305F1010B12
:109350005FFA8BF3002C00F08981002203E00132D8
:10936000152A00F0838102EB42014FEA4209785C42
:10937000A042F4D14144049391F89513002900F0E0
:109380007D81204637F0B8FF8246006837F058FFED
:109390009AF8051038F0F6F890F800C0BCF1000F0C
:1093A00040F0648108EB09014FEA1419032209F126
:1093B000FF39049B81F8D533914581F8D42304F01B
:1093C0000F0000F20381954C04EB4901B1F840C055
:1093D0004CFA00F111F0010100F03181012101FA94
:1093E00000F0013800EA0C00A144049352F07CFC28
:1093F00099F848C0DFF838E2049B60440EEBC00CDB
:1094000003228CF807308CF806205EF83000C6F88E
:1094100014C000F13F4303F57E0304EB93240121C4
:1094200094F84C309AF8082003F01F045B09032BD2
:1094300001FA04F100F0FE80042B00F0CF80022B33
:1094400000F0C780BCF804300893B3FA83F3C3F18B
:109450001F03C3F3CC0100EB810103F007030C6A87
:109460009B004FF00F0C0CFA03FC24EA0C040C6276
:109470000C6A02FA03F323430B62022308A909933F
:10948000FEF7E8FD059B002B79D0594BD8F88815DD
:10949000B3F8E83E07EE903AF8EEE77AFCEEE77AAA
:1094A00017EE900AB1FBF0F202F57F42FF32120C88
:1094B000B1FBF2F24E49B2FBF0F091F8EA1E04293A
:1094C00083B274D007EE902AF8EE676A66EE887A67
:1094D00029EE677A4649A8EEA67A91F8EB0E06992E
:1094E0000091019051463046C6ED027A86ED037A2E
:1094F00030F03EF9002D65DD7368D8F8D82293422C
:1095000062D0012D5ED0D8F8F02293425CD0022DBB
:1095100058D0D8F80823934256D0032D52D0D8F80B
:109520002023934250D0042D4CD0D8F838239342B6
:109530004AD0052D46D0D8F85023934244D0062D6A
:1095400040D0D8F86823D31A18BF01235D46012202
:10955000082D3374727406F118067FF4EFAE2348B9
:109560000BB0BDEC068BBDE8F08F9FED2D8AF0EEC1
:10957000488ABFE69FED2B8AF0EE488ABAE6B0EE45
:10958000690A53F0B9FAFCEEC07A4FF6FF7317EE92
:10959000902AD8F88815B1FBF2F21A44120CB1FBEC
:1095A000F2F2134991F8EA1E042918468AD107EE0F
:1095B000900A07EE102AF8EE677AF8EE476A67EE2F
:1095C0008A7A85E70123C1E70023BFE7C6F814C004
:1095D00058E7154B5C6C2143596433E7124B1C6B05
:1095E000214319632EE700BF04F30508782C0020FF
:1095F000E0180020ACC5A737ACC5A7369D8C030882
:10960000B9F40308E9870308ADF40308AC2C002083
:10961000CF2700206F12833A00007A44F0F2050849
:10962000282930386F12033900380240D829002029
:10963000D82D0020124B1C6C2143196402E7716184
:1096400020E7DFF858809FED0F8A0F4A0F4BC8E9DB
:10965000AE3201230022CDE90532F0EE488A0C4BF0
:1096600056E6DFF838809FED0B8AEEE70A4A084B92
:10967000C8F8BC22C8F8C432002071E70B68FFDECE
:10968000003802406F12833A9D8C0308B9F4030836
:10969000ADF403080000000039890308D829002030
:1096A000F8B51A4D95F88C35002BFBD161B3014408
:1096B000174F4E1E441ED7F80C29D7F8081914F876
:1096C00001CF531CC3F30A038B422CBF4FF400603D
:1096D0000020C91A2A4401440129C7F80C3982F82C
:1096E00090C50FD1012038F077FED7F80839D7F8A8
:1096F0000C198B4294BF4FF4006200225B1A134492
:10970000012BEFD0B442D6D10020F8BDD8290020DB
:10971000E01800200A4B0846D3F8281910B569B1A3
:10972000D3F82839052B09D1064C002AD4F8903DEE
:1097300004DD1146FFF7B4FFD4F8903D10BD00BF23
:10974000E0180020D829002010B590F85010002310
:1097500080F8503089B10C4CD4F828297AB1D4F86B
:109760002829052A0DD1094C3C30D4F8903DFFF74B
:1097700097FFD4F8903D012010BD0120FCE7104672
:10978000FAE71846F8E700BFE0180020D8290020C3
:10979000002280F85120D7E790F85020531C024453
:1097A000DBB280F8503082F83C1090F851200AB1BA
:1097B000132B00D9C8E77047F8B50546262025F0D9
:1097C0006FF9134C0146F0B9D4F8940D90F8383085
:1097D0001E3B012B01D939F00FFA0E4F0026AE4285
:1097E00009DBB4F8B83D0133A4F8B83DD4F8903D96
:1097F000C4F8C83DF8BD17F8011BD4F8940D39F032
:10980000FBF90136EBE7002384F8C63DEEE700BF25
:10981000D82900207037002038B5154C94F8A139AC
:1098200094F8A0299A421CD004EBC303114AD3F840
:10983000A419D3F8A8090023984213DC8B780E4AA8
:109840005B0882F8C63DC2F8CC0DFFF7B5FF94F86F
:10985000A13906210133B3FBF1F201FB123384F885
:10986000A13938BDCD5C02F8015B0133E4E700BFEC
:10987000E018002070370020D82900202DE9F84F8B
:109880001B4C05461E2094F8D0AD94F8D1BD94F839
:10989000D26DB4F8D49DB4F8D68D94F8D87D25F067
:1098A000FFF830B1B8F1000F03D0C14601264FF0E8
:1098B000000A94F8DA3DDA070AD494F8DF2D3AB9B1
:1098C000012F12D0022F03D113F0020F08BF01267F
:1098D00085F800A085F801B0AE70A5F80490A5F851
:1098E00006802F722846BDE8F88F3E46F0E700BF9D
:1098F000D829002013B50446FFF758F908B3002310
:109900000DF106022046ADF8063013F01DFEC0B181
:109910000D4C9DF8062094F9D81084F8F020032906
:1099200008BF62F07F024FF00501084808BF84F8C5
:10993000F020FFF7A5F9062184F8F1000348FFF7AE
:1099400085F902B010BD00BF9801002084020020FC
:109950002DE9F84F2DED028BFFF728F9002844D0B0
:10996000254B93F9D80001283FDD93F8F240DFF84A
:1099700090809FED228A0FF2780BDBE900AB154651
:109980008E1E02EB44094D4504D1BDEC028B2046EE
:10999000BDE8F88F38F8027B26F8027F07EE907A50
:1099A000F8EEE77A67EE887A17EE900A51F0ACFD90
:1099B00052465B4651F000FE41EC100B55F078F931
:1099C00051EC100B52F020F90E2F80B20AD9193049
:1099D0003223B0FBF3F080B200EB800000EB80009C
:1099E000400080B225F8020BCDE70024CDE700BF90
:1099F0001655B5BBB16B024098010020CDCCCC3DD3
:109A0000DC37002038B50D46FFF7D0F8044638B1F2
:109A10000C4890F8DB30DB0704D5B0F8DC00288078
:109A2000204638BD084A90F9D93092F89C2993FB1A
:109A3000F2F102FB113201320131F43013F098FDE2
:109A4000EDE700BF98010020E01800202DE9F04F5D
:109A5000A94D95F8143E8BB08146002B40F0B5809F
:109A6000D5F8186E002E00F0B080A44AD2F8F84065
:109A700004F0F021B1F1E02F6ED1C2F8F830D5F842
:109A80001C2E944268D004930593ADF81830B5F8B5
:109A9000D43D95F8D0EDADF8143095F8D1CD95F8CA
:109AA000D83D95F8D2AD8DF818300DF110088DF82D
:109AB00010E08DF811C08DF812A098E8070007ABF0
:109AC00003C38F4F1A80C4F342533B44C4F3034291
:109AD00093F85210C5F81C4E8E4502F1010201D1D7
:109AE000944508D030468DF81C108DF81D2013F0D9
:109AF0003FFDADF82000304613F070FF032804F05E
:109B0000070B34D0042836D000239A4501A93046EB
:109B100018BF8DF81E3013F0A5FD48B1019BC4F3AA
:109B2000001103F001038B4202D0304613F048FECF
:109B30000A2207A9404655F062FB68B19DF81E3025
:109B4000BDF81C2085F8D23DBDF82030A5F8D02DF9
:109B5000A5F8D43D41F064FE95F820AE04AF95F829
:109B6000203E032B7BD8DFE803F00A3376A35F4463
:109B700097F85730C9E75F4497F85F30C5E7394633
:109B8000304613F075FD044658B107A8FFF776FE7E
:109B90009DF81E109DF810308B4260D0304613F0B7
:109BA00085FE95F8203E013303F0030385F8203E3F
:109BB0000CB99A45D3D195F8DA3DDB0700D524B12D
:109BC000336849461B68304698470BB0BDE8F08FB4
:109BD00001A8FFF753FE95F8DA8D9DF8044008F0D0
:109BE0000108ECB1B8F1000F39D13A460DF103018B
:109BF000304613F040FD044688B307A8FFF73EFE49
:109C00009DF81C109DF803309DF81D208B4203D158
:109C10009DF81030934222D0304613F051FEC0E739
:109C2000B8F1000FBDD13946304613F01EFD044691
:109C3000A8B107A8FFF722FEBDF82010BDF810302C
:109C40008B420CD085F8218E85F8228E3368304601
:109C50009B699847A5E795F8DA3DD80701D5002418
:109C60009FE707A9304613F0FDFC04460028F6D014
:109C70001E2024F015FF95F8233E83428046EED047
:109C800085F8230E60B1B5F8D63D002BE7D1079BD0
:109C9000D907E4D40121304613F092FD444680E711
:109CA000079BDA07DBD50146304613F089FD78E7DC
:109CB0003846FFF7E3FD97E8070007AB03C31A80B8
:109CC0009DF810309BB10DF11D0207A9304613F02D
:109CD000D2FC0DF11E01304613F0CAFC0A2207A97E
:109CE000384655F08CFA041E18BF012459E708A91C
:109CF000304613F0BAFCECE7D82900209801002088
:109D0000F0F205082DE9F041FD2984B0044600F089
:109D1000DE80F02900F0BD80EF2900F033814AB1E8
:109D20000346861803AD002003F8010B9E4205F898
:109D3000010BF9D19A4B0B2003F1090501E013F84F
:109D4000010F814200F0C880AB42F8D14B1E832B3B
:109D500000F29380DFE813F03001370141014C013C
:109D6000BD018400560161016D01910091007301F4
:109D7000730173018901890189016D0191009100CD
:109D800094019C019100910091009100910091003B
:109D9000910091009100910091009100910091003B
:109DA000910091009100910091009100910091002B
:109DB000910091009100910091009100910091001B
:109DC000910091009100910091009100910091000B
:109DD0009100910091009100B201910091009100D9
:109DE00091009100910091009100910091009100EB
:109DF00091009100910091009100910091009100DB
:109E000091009100910091009100910091009100CA
:109E100091009100910091009100910091009100BA
:109E200091009100910091009100910091009100AA
:109E3000910091009100910091009100910091009A
:109E4000910091009100910091009100910091008A
:109E50009100910091009100910091001F011F015C
:109E6000504BB3F8901E002900F06B8101922FF047
:109E7000E3FE019A80B2ADF80C003AB1224403AB84
:109E800013F8011B04F8011BA242F9D104B0BDE88C
:109E9000F081454F03214FF00508B84400250137F4
:109EA0000CE0FFF75BF8064660193246FFF72AFF21
:109EB00070194745C5B2E9D017F8011B412981F057
:109EC0008003084601D0042BEBD80426ECE7374F7B
:109ED0000B214FF00408E0E7354BD3F80C3F9B060D
:109EE0000CD4002AD2D0224403AB13F8011B04F88F
:109EF000011B9442F9D104B0BDE8F081294B93F8DD
:109F0000240E10F0020F93F83C0E40D0052834BF09
:109F100002250325142917D97C39C8B20628E0D8B0
:109F20000629DED801A050F821F000BF15A10008D5
:109F300015A10008FDA00008E39E000827A1000865
:109F40001FA100082FA100080929CAD90A390A2926
:109F5000C7D801A656F821F0DFA0000837A10008F5
:109F6000E39E0008E39E0008E39E0008E39E0008CD
:109F7000E39E0008E39E0008E39E0008F3A00008AB
:109F800015A100080B4F0C214FF0060885E70B299F
:109F9000A7D10125D0E0064BD3F8443F03936CE7EB
:109FA00058F30508D8290020F4F20508F0F2050856
:109FB000E0180020FCF205080192FFF703F8019A6F
:109FC000ADF80C0059E7704BD3ED037AFDEEE77A5C
:109FD00017EE903AADF80C304FE76C4B93F8570EF4
:109FE000B3F8441E002840F0B280ADF80C1044E7EE
:109FF0006649B1F8443E91F8701EB3FBF1F3ADF839
:10A000000C303AE7614D95F8DA3DDE0700F1A480A7
:10A01000B5F8903EADF80C302FE75C4B5C49B3F9D6
:10A02000183F81FB0301DB17C3EBA103ADF80C3034
:10A0300023E7564BB3F81A3FADF80C301DE7554BEC
:10A04000DFED556AD3ED007A0C39C9B203EB810319
:10A0500093ED147A67EEA67A67EE877AFDEEE77ADB
:10A0600017EE903AADF80C3007E7484B03EB41018F
:10A07000B1F8F63E03EB83035B00ADF80C30FCE671
:10A08000424B93F8DA3D03F00103ADF80C30F4E6EF
:10A090003E4BB3F8B01EC8055ABFCB4303F00103D3
:10A0A000032311F0440F18BF042311F0020F18BF4F
:10A0B000072311F4806F18BF0923ABE70192FEF765
:10A0C00081FF364B019AD3F84C3F43EAC0400390DE
:10A0D000D3E62E4BD3F8A03EADF80C30CDE6B3F866
:10A0E000383E03EB830303EB83039B00ADF80C3096
:10A0F000F7E6B3F8363EADF80C30F2E6B3F8363E8C
:10A10000274903EBC3039B00A1FB03135B09ADF8D5
:10A110000C30E6E6B3F8403EADF80C30E1E6D3F89B
:10A120002C3E0393DDE6D3F8283E0393D9E6D3F81B
:10A13000303E0393D5E6EDB28DF80C508DF80D004E
:10A14000CFE6D3F8A80E80F3100080B293E693F820
:10A15000703EB1FBF3F148E7019224F00DFD05F6E6
:10A160007463D3ED037A019AFCEEE77A17EE903A26
:10A170009BB200287FF44EAFD5F8AC1E11F0100F43
:10A1800018BF002346E700BF4C380020D829002024
:10A19000676666668C38002000007A44E01800206C
:10A1A0001F85EB5100F01F0240090123032803FA29
:10A1B00002F304D004280CD0022805D07047074AC7
:10A1C000116C0B4313647047044A516C0B43536486
:10A1D0007047024A116B0B4313637047003802400B
:10A1E00000487047382E00200E4B30B4DB684278B0
:10A1F00001780D4CDB43C3F30223C3F10403DBB24C
:10A2000002FA03F360181B0101F01F05012249093E
:10A2100003F0F003AA4080F8003344F8212030BC5A
:10A22000704700BF00ED00E000E100E02DE9F043E1
:10A2300085B00D46164604463CF0ACFF00284EDBC8
:10A24000334FDFF8D48007EB800308EB000C07F6F0
:10A250005C7229462046C3F81C2F9CF8749037F096
:10A260006DFB002C51D0256805F13F4505F57E05B5
:10A27000AD0A20463CF08EFF00F0FC0303F1804362
:10A2800003F59C3300F003009A6880000F218140A1
:10A2900022EA01029A609A68EDB205FA00F01043D2
:10A2A00098602CB1A0884FF00044B0FA80F0C44010
:10A2B000184B08EB86064F445C61D6F884108DF885
:10A2C0000D100123002202A88DF80E3002948DF8A3
:10A2D0000C20FDF795FE97F8603FF02B02D805B0F3
:10A2E000BDE8F083C844F02198F890308DF8043030
:10A2F00003224FF4807301A887F8601F8DF80520B2
:10A30000ADF80630FFF770FFE9E74FF0FF35B0E733
:10A31000D8290020003C0140F0F20508002864D054
:10A32000F0B58388B3FA83F3202B0A4685B0044640
:10A33000C3F11F0143D02D4D2D4E05EB810377183E
:10A34000C3F81C2F002197F8747037F0F7FAB4F8AF
:10A3500004C02268274CBCFA8CFCCCF11F0303F02C
:10A36000FC0101F1804101F59C3103F003039800E9
:10A370004FF00F0E02F13F438A680EFA00FE22EA08
:10A380000E0203F57E038A60C3F387238340886847
:10A390004FF0004222FA0CF203433D448B6002A8C6
:10A3A000626101234FF400618DF80E300292ADF826
:10A3B0000C10FDF725FE95F8603FF02B01D805B095
:10A3C000F0BD3E44F02196F890308DF80430032221
:10A3D0004FF4807301A885F8601F8DF80520ADF853
:10A3E0000630FFF701FF05B0F0BD7047D829002007
:10A3F000F0F20508003C014000285FD00368374AAE
:10A400002DE9F04103F13F4404F57E0402EB942270
:10A41000012492F84C2002F01F055209032A04FA85
:10A4200005F456D0042A4FD0022A48D08588B5FAC0
:10A4300085F0C0F11F00C0F3CC0603EB860600F0E8
:10A44000070082000F24306A944020EA0400306242
:10A45000306A01FA02F20243002132624FF0010E2B
:10A460000A464FF0030C02270EFA02F838EA0500FC
:10A4700002F101021CD118680CFA01F420EA040070
:10A480001860186807FA01F606431E609E6826EAFF
:10A4900004069E6098689860586820EA0800586032
:10A4A00058685860D86820EA0400D860D868D86036
:10A4B000102A01F10201D7D1BDE8F0817047084AA6
:10A4C000556C2C435464B1E7054A156B2C43146357
:10A4D000ACE7034A156C2C431464A7E7F0F20508B7
:10A4E000003802402DE9F84FBA4C94F8671F054632
:10A4F000C1F34001D4F86C0F3BF0F8FD94F8671FEE
:10A50000D4F8680FC94301F001013BF0EFFD002DC5
:10A5100000F0CD806E1EB04FB04D5FFA86FB4FF05D
:10A520001008D4F86C0F3BF0C5FDD4F8680F3BF071
:10A53000C1FDB4F8743F002B40F0438194F8761FBE
:10A54000D4F8780F3BF0D2FD4FF0FA094FF47A704F
:10A550004FF0010C7B68C3F30803002B40F0088127
:10A56000EFF31183002B40F00381D4F8902DA968FC
:10A57000D4F8903D9A42F8D1D4F89C3F9942F4D84F
:10A58000D4F8986F00FB06F35B1AB3FBF6F300FBFD
:10A5900002327B68C3F30803002B40F0A880EFF37E
:10A5A0001183002B40F0A380D4F8903DD5F808A08B
:10A5B000D4F8901D8B42F7D1D4F89C1F8A45F3D86C
:10A5C000D4F8986F00FB06F1A1EB0A01B1FBF6F19C
:10A5D00000FB03139B1AB3F57A7FDAD3B9F10109B3
:10A5E000B8D1D4F86C0F3BF065FDD4F8680F3BF0A0
:10A5F00061FDB4F8743F002B40F0D78094F8761FCB
:10A60000D4F8780F81F001013BF070FD4FF0FA0CA7
:10A610004FF47A704FF0010E7B68C3F30803002BF0
:10A6200040F08680EFF31183002B40F08180D4F856
:10A63000902DA968D4F8903D9A42F8D1D4F89C3F67
:10A640009942F4D8D4F8989F00FB09F35B1AB3FB46
:10A65000F9F300FB02327B68C3F308034BBBEFF353
:10A66000118333BBD4F8903DD5F808A0D4F8901DE1
:10A670008B42F7D1D4F89C1F8A45F3D8D4F8989F21
:10A6800000FB09F1A1EB0A01B1FBF9F100FB031397
:10A690009B1AB3F57A7FDED3BCF1010CBCD10BF170
:10A6A000FF365FFA86FBBBF1FF0F7FF43AAFBDE8E0
:10A6B000F88FEFF3118988F31288AE682B68DB03FB
:10A6C00044BFC4F894EFAE68D4F8903DD4F8941F1A
:10A6D0005FFA89F989F31188D4F8989F0B4400FB3D
:10A6E00009F1891BB1FBF9F100FB0313D0E7EFF38C
:10A6F000118E88F31288D5F808A02B68D90344BFBF
:10A70000C4F894CFD5F808A0D4F8903DD4F8941F9D
:10A710005FFA8EFE8EF31188D4F8986F0B4400FB1D
:10A7200006F1A1EB0A01B1FBF6F100FB031351E7BF
:10A73000EFF3118188F31288D5F808902B68DA03BB
:10A7400044BFC4F894EFD5F80890D4F8903DD4F8FD
:10A75000942FC9B281F31188D4F8981F1A4400FBD2
:10A7600001F3A3EB0903B3FBF1F300FB023272E741
:10A77000EFF3118188F31288AE682B68DB0344BFC6
:10A78000C4F894CFAE68D4F8903DD4F8942FC9B2F1
:10A7900081F31188D4F8981F1A4400FB01F39B1B26
:10A7A000B3FBF1F300FB0232F3E6D4F8903F002B49
:10A7B0003FF42CAFD4F87C3FC3F8009084F88D9F11
:10A7C00024E7D4F8903F002B3FF4BEAE37F0C8FE2C
:10A7D000BAE600BFD829002000ED00E010E000E05C
:10A7E0002DE9F84FB74CB84F94F8671FD4F86C0FA9
:10A7F000B64DC1F340013BF079FC94F8671FD4F8E3
:10A80000680FC94301F001013BF070FC4FF0050BEC
:10A810004FF01008D4F86C0F3BF04CFCD4F8680FE4
:10A820003BF048FCB4F8743F002B40F0438194F8AF
:10A83000761FD4F8780F3BF059FC32264FF47A702B
:10A840004FF0010C7B68C3F30803002B40F0078135
:10A85000EFF31183002B40F00281D4F8902DA9680A
:10A86000D4F8903D9A42F8D1D4F89C3F9942F4D85C
:10A87000D4F898EF00FB0EF35B1AB3FBFEF300FB7A
:10A8800002327B68C3F30803002B40F0A780EFF38C
:10A890001183002B40F0A280D4F8903DD5F808A099
:10A8A000D4F8901D8B42F7D1D4F89C1F8A45F3D879
:10A8B000D4F898EF00FB0EF1A1EB0A01B1FBFEF119
:10A8C00000FB03139B1AB3F57A7FDAD3013EB9D1AB
:10A8D000D4F86C0F3BF0EEFBD4F8680F3BF0EAFBCA
:10A8E000B4F8743F002B40F0DA8094F8761FD4F867
:10A8F000780F81F001013BF0F9FB4FF0320C4FF47F
:10A900007A7001267B68C3F30803002B40F0878030
:10A91000EFF31183002B40F08280D4F8902DA968CA
:10A92000D4F8903D9A42F8D1D4F89C3F9942F4D89B
:10A93000D4F8989F00FB09F35B1AB3FBF9F300FB13
:10A9400002327B68C3F308033BBBEFF3118323BBE5
:10A95000D4F8903DD5F808A0D4F8901D8B42F7D1DB
:10A96000D4F89C1F8A45F3D8D4F8989F00FB09F1CE
:10A97000A1EB0A01B1FBF9F100FB03139B1AB3F53C
:10A980007A7FDED3BCF1010CBCD10BF1FF3616F09F
:10A99000FF0B7FF43FAFBDE8F88FEFF3118988F329
:10A9A0001288D5F808A02B68DB0344BFC4F8946F65
:10A9B000D5F808A0D4F8903DD4F8941F5FFA89F92F
:10A9C00089F31188D4F8989F0B4400FB09F1A1EB9F
:10A9D0000A01B1FBF9F100FB0313CFE7EFF3118E8E
:10A9E00088F31288D5F808A02B68D90344BFC4F8AF
:10A9F00094CFD5F808A0D4F8903DD4F8941F5FFA0E
:10AA00008EFE8EF31188D4F898EF0B4400FB0EF104
:10AA1000A1EB0A01B1FBFEF100FB031352E7EFF3D8
:10AA2000118188F31288D5F808902B68DA0344BFA7
:10AA3000C4F8946FD5F80890D4F8903DD4F8942FCA
:10AA4000C9B281F31188D4F8981F1A4400FB01F3AE
:10AA5000A3EB0903B3FBF1F300FB023271E7EFF361
:10AA6000118188F31288D5F808E02B68DB0344BF16
:10AA7000C4F894CFD5F808E0D4F8903DD4F8942FDA
:10AA8000C9B281F31188D4F8981F1A4400FB01F36E
:10AA9000A3EB0E03B3FBF1F300FB0232F1E6D4F8B3
:10AAA000903F002B3FF429AFD4F87C3F1E6084F820
:10AAB0008D6F22E7D4F8903F002B3FF4BEAE37F005
:10AAC0004FFDBAE6D829002000ED00E010E000E0DC
:10AAD00010B4B8B10D4CD4F8A03F102B05D15DF8DF
:10AAE000044B0521002037F011BA03EB4302224446
:10AAF00082F8A51F01210B4482F8A40F82F8A61F3B
:10AB0000C4F8A03F5DF8044B704700BFD82900206F
:10AB10002DE9F0472E4C054600EBC00004EB800405
:10AB2000D4F8D87F2FB10E4694F8E91F01F0FF0842
:10AB300021B14FF000084046BDE8F08799469246A3
:10AB400037F01EFC71000123C9B284F8EA1F84F8B3
:10AB5000EBAF84F8ED3F84F8EE8F84F8EC3F84F897
:10AB6000E93F84F8E88FBA88C4F8F09F910506465B
:10AB7000C4F8F49F1CD43B88DA050FD442F20F745A
:10AB800004E037F0FDFB831BA34215DC3B889B05EB
:10AB9000F7D43B889BB243F480733B80BB889BB265
:10ABA00043F440734FF00108BB804046BDE8F08796
:10ABB00098464046BDE8F087064A32F8B83C013373
:10ABC0009BB2284622F8B83C4FF0CCFEB3E700BF5A
:10ABD000D8290020D03A002070B5464E16F8B64C61
:10ABE00004EB440306EBC303650013F8B43C032BEA
:10ABF0006ED8DFE803F059291E02254406EBC5058F
:10AC000055F8B00C002870D116F8543C9C425FD027
:10AC1000013404F00302934206F8B62C58D002EB3C
:10AC2000420406EBC404022344F8B00C04F8B43C1C
:10AC300070BD2B1906EBC30353F8B02C72B1013A67
:10AC400043F8B02C002070BD2B1906EBC30353F85A
:10AC5000B02C002AF3D1022203F8B42C254406EBD1
:10AC6000C50515F8A83C013BDBB205F8A83C8BBB39
:10AC7000214B16F8546CD3F8FC1055F8AC0C621C40
:10AC800002F003024B1E0324B242034405F8B44C05
:10AC9000B3FBF1F045F8B00C1AD0994218D801383E
:10ACA00045F8B00C012070BD3CF064FF80B1124B40
:10ACB0002C44D3F8FC2006EBC404012102F51C53FC
:10ACC00004F8B41C0F33B3FBF2F344F8B03C70BD8E
:10ACD000012070BD084BD3F8FC20012002F2E733BD
:10ACE000B3FBF2F345F8B03C70BD013845F8B00C49
:10ACF000002070BDD03A0020980100202DE9F843D3
:10AD0000836804460E46174613B11A689B8853831E
:10AD1000656837F035FBAB89804642F20F792B89A5
:10AD20009B0710D528467F214DF020FB3B466068ED
:10AD3000314600224BF06AFBA36813B11A689B8866
:10AD40001383BDE8F88337F01BFBA0EB08004845F0
:10AD5000E5DD28463CF064FDE8E700BF094B93F8C9
:10AD6000EA3E042B08D9053B032B08D801231A46D9
:10AD700000B103701046704700230122F8E700235A
:10AD80001A46F5E7E0180020F0B40D6800240CE046
:10AD9000BCF1050F18D8A0F137030A2B14D104EB2E
:10ADA000840415F8010B03EB4404A0F13003DEB278
:10ADB000092EA0F16107A0F1410CF0D9052FE7D8C9
:10ADC000A0F157030A2BEAD00D601460F0BC704765
:10ADD0009FED737A07EE901A20EE070AF8EE677A75
:10ADE00027EE800AFDEEC07A17EE903A2033402B12
:10ADF00000F2C780DFED6B7AB4EEE70AF1EE10FAED
:10AE0000F0EE407A0CDD9FED686ADFED686AB0EE27
:10AE1000677AB4EEE67AF1EE10FA77EEC67AF6DCEF
:10AE20009FED637AF4EEC77AF1EE10FA0CD59FED40
:10AE30005E6ADFED606AB0EE677AB4EEE67AF1EE54
:10AE400010FA77EE867AF6D49FED5B7AF4EEC77A45
:10AE5000F1EE10FA00F38D809FED587AF4EEC77A88
:10AE6000F1EE10FA44BF9FED527A77EE677A27EE43
:10AE7000A76ADFED535A9FED537ADFED536AA6EED2
:10AE8000257A67EE865AE6EE076AB6EE007AE5EEB8
:10AE9000A67A27EE877ADFED486A70EE267ABDEE55
:10AEA000E76A16EE103A2033402B67D8B4EEE60A74
:10AEB000F1EE10FA0CDDDFED3C5A9FED3C6AF0EE4E
:10AEC000676AF4EEC66AF1EE10FA77EEE57AF6DC20
:10AED000DFED376AF4EEE67AF1EE10FA0CD5DFED2D
:10AEE000325A9FED346AF0EE676AF4EEC66AF1EE0C
:10AEF00010FA77EEA57AF6D4DFED2F6AF4EEE67A53
:10AF0000F1EE10FA40DDDFED276A76EEE77A67EEC4
:10AF1000A75A9FED2B5A9FED2B6ADFED2B6AA5EE0A
:10AF2000856A27EEA55AE5EE866AB8EE006AE5EE78
:10AF3000267A67EE867AC7EE206A00238361436132
:10AF40000362C361B7EE006A76EE865A76EE666AF1
:10AF500086EE257A67EE277A66EE876AC0ED017A7B
:10AF6000C0ED037A80ED007A80ED027AC0ED046ACC
:10AF700070479FED0C7A77EE677A78E7DFED137A0A
:10AF8000D9E79FED127A86E7DFED0C6AF4EEE67AF8
:10AF9000F1EE10FA44BFDFED066A76EEE77AB6E727
:10AFA00027D4D236DB0F4940DB0FC940E4CB164132
:10AFB000DB0F49C0E4CB16C1DB0FC93FDB0FC9BFB4
:10AFC00092E741B99730083C15A82ABE000000005E
:10AFD0002DE9F0418C4C82B014F8533C0190002BC9
:10AFE00040F00C8114F8303C34F82E2CDFED876AE9
:10AFF00034F82C8C24F81C8C07EE103A07EE902ABB
:10B00000B8EEC76AB7EE007A34F8322CF0EE475A41
:10B010004FEA4805E6EE665A9542B8BF1546A6EED9
:10B02000267AAEB20122F8EEE77A24F81A6C67EEBF
:10B03000A67A44ED0A5A04ED097A44ED087A04F838
:10B04000532C002B00F0D680DDED017A9FED700AC5
:10B05000F8EE677AADB280EE270A51F093FD6D00ED
:10B06000B0FBF5F5012DB8BF0125EDB2B0FBF5F34E
:10B070009BB2074604F8185C00EE103ABBEEED0AEE
:10B0800004ED050A51F07EFD624BDFED636AB8FB0B
:10B09000F0F0A3FB0737FF0807EE907AF8EEE77AA7
:10B0A000022886EEA77AB8BF02205C4904F8100C8B
:10B0B00000239FED5B1A9FED5B6ADFED5B1ADFED0E
:10B0C0005B5A9FED5B2ADFED5B2A9FED5B3ADFED7C
:10B0D0005B3A9FED5B4A04ED037A07EE903AB8EED7
:10B0E000E77AF0EE467AE7EE017AFDEEE76A16EED1
:10B0F000902A2032402A7AD8B4EEE17AF1EE10FAA2
:10B100000CDDDFED506A9FED507AB0EE675AB4EE79
:10B11000C75AF1EE10FA77EEE67AF6DCF4EEE57A4D
:10B12000F1EE10FA0CD5DFED476A9FED487AB0EEEC
:10B13000675AB4EEC75AF1EE10FA77EEA67AF6D453
:10B14000F4EEC67AF1EE10FA49DD74EE677A67EE36
:10B15000A76AF0EE624AE6EE824AF0EE430AE6EEB5
:10B16000A40AB7EE007A27EEE65A77EE677AB6EED3
:10B17000007AE5EE207A67EE877A0133202BE1EC46
:10B18000017AAAD107EE905AF8EEE77AF7EE006A54
:10B1900086EEA77A2E4B2F4AC4F8943603F1280185
:10B1A000A833C4F890161020C4F8A0362021142328
:10B1B00084F8F154A4F88C06A4F89C1607EE906A63
:10B1C000F8EE677AA4F8983682ED007AC2EDAC7A90
:10B1D000C2EDAD7AC2EDAE7A02B0BDE8F081F4EE18
:10B1E000E37AF1EE10FA48BF75EEE77AAFE7F6EED4
:10B1F000007AC2E7184A82F8003125E714F8185C93
:10B2000034F81A6CBEE700BFD03A00200AD7233CBE
:10B2100000247449ABAAAAAADB0FC941C83A00208E
:10B220003C8C4F3EDB0FC93F0100F840DB0F49C0AB
:10B2300092E741B99730083C15A82ABEDB0FC9BF79
:10B24000DB0F4940DB0FC940E4CB1641E4CB16C10C
:10B2500088F30508C43F0020980100202DE9F04F35
:10B260002DED108B034697B004331593DFEDCACA5A
:10B27000149002238A4613928B461293149C4FEA31
:10B28000DB0604EB461202EB06103101A6EB860347
:10B290004FEAC60806EB4605CDE9000100EBC30303
:10B2A000043108F104001196204421442C01C6EB1E
:10B2B000C60C0394EC00119D04944FEACC04059451
:10B2C0006C0106EB860E0294159D009C03EB46175D
:10B2D0004FEACE0E02EBC6064FEACB094FF0000C48
:10B2E00051ED01AAD3ED001A92ED007A94ED005AC7
:10B2F00096ED004AD7ED007A15ED012A50ED016A6E
:10B3000032EE07BA76EE840A7AEE855A31EEA70A53
:10B310003BEE256A70EE804A76EEC46A36EE244A29
:10B3200036EE646A05ED014A82ED006AD0ED00BA9E
:10B33000D6ED012AD3ED019A95ED00AA92ED016AAE
:10B3400097ED013A91ED00CAD4ED014A7BEEE23A65
:10B3500036EEE19A32EE472A73EEE98A3AEE464A31
:10B3600039EE279A78EE838AB0EE428AA9EE6C8A8B
:10B37000DC44E24573EEC33AB0EE441AA8EEEC1A90
:10B3800076EEE77A33EEA97A7CEE643A77EEA17A2C
:10B390003AEE066A7AEEC51A3CEE24AA74EECC4A5E
:10B3A00039EE833A35EE6A5AF0EE639AF0EE48AA27
:10B3B000E7EE2C9AA8EEAC4AE7EE2C4AE7EE6CAA30
:10B3C000F0EE418AB0EE427AB0EE612A7BEE656A19
:10B3D0007BEEA22A76EE4A5AA9EE2C7AA7EEAC2A88
:10B3E000A7EEAC5AE7EEEC8A32EE83BA76EEC3BA39
:10B3F00035EEE09A75EEC07A36EE0A6A76EEE26ACB
:10B4000036EE0BAA76EE836A77EEA07A34EE423AF5
:10B4100077EE290A36EE4B6A7BEEA22A39EE000A55
:10B4200073EEAA3A78EE244A37EE697A31EE055A7D
:10B4300071EEA85A32EE044A85ED00AA82ED016A47
:10B440004D4441ED012A4A44C4ED006A81ED000AF1
:10B45000C4ED017A494440ED010A4C4487ED007A7D
:10B46000C6ED003AC3ED004A80ED003A87ED014A8F
:10B47000484486ED015A4F44C3ED015A4E444B44B3
:10B480003FF62EAF119B072B40F2C781029D149E01
:10B49000019B03980499059A083575190C330E958C
:10B4A000354608F108080EF10804EB180830083199
:10B4B000083246442C1928186918AA18079305F170
:10B4C0000C030D960C940B900A91099208934FF07F
:10B4D00001084FF0000E129B9E44139B03EBCE031A
:10B4E00003EBCE02109302EBCE0303EBCE010291ED
:10B4F00001EBCE0101EBCE0505EBCE06D6ED007AD1
:10B500000F93AEEB8E03019106EB031303EBCE0713
:10B51000D3ED01AACDED067A019BD5ED007A97ED2A
:10B5200001BACDED057AD3ED007A029BCDED047A18
:10B53000D3ED007A0F9BCDED037A07EBCE0CD3ED64
:10B54000007ADCED01BACDED027A0CEBCE01D2ED42
:10B55000007A109A009101EBCE00014691ED01DADC
:10B56000CDED017A0099D2ED007A91ED01CA00EBA0
:10B57000CE0000EBCE0494ED01EAD0ED01DACDED82
:10B58000007ADDE90776DDE90954DDE90B01DDE943
:10B590000D23C44602E000BFF304353F94ED009A4A
:10B5A00090ED00FA91ED006AD5ED007AD3ED006AD6
:10B5B00057ED014A92ED005A56ED013A96ED00AA78
:10B5C00035EE060A73EEA65A39EE278A34EE8F7AE4
:10B5D00070EE082A75EE87EA35EE465A3EEEA26A0C
:10B5E00073EEE63A06ED016AD1ED019AD2ED01FA69
:10B5F000D4ED016AD3ED011A95ED013AD0ED018A3F
:10B6000097ED004A3FEEE96A35EE491A76EE660A92
:10B6100031EE271A3AEE612A75EE677A70EE830AE8
:10B620003FEEA95A74EECF9A77EE897A7AEE211A14
:10B63000B0EE42AA74EE68FAA0EEECAADC44E24551
:10B6400035EEC77AB0EE639A74EE285A38EEC44AE3
:10B65000F0EE698AA1EE6C9AE7EEAC8A36EE436AA8
:10B660007FEE644A36EE266AA0EEAC2AF0EE4A0A75
:10B67000E7EEEC0AE7EEAC4AF0EE687AF0EE498AC3
:10B6800036EE833AE6EE6C8AE1EE2C3AB0EE6F1AB3
:10B69000A6EE2C1A71EEE56AA6EE2C4A71EEA55ABA
:10B6A00075EE031A7EEEE22A37EE43FA75EEE1EA12
:10B6B000B0EE686A76EEC08A39EE044A7FEE86FA0A
:10B6C00076EEC86A33EE816A38EE888A73EEC13A44
:10B6D00037EE457A2CEE2E1A3FEE055A22EECC9A22
:10B6E0009DED03FA70EE266A33EE077AAFEE221A6A
:10B6F000AFEE2E9A7AEE244A9DED01FA79EEA09AE9
:10B7000025EE4BAA72EE670A37EE822A6BEE087AB4
:10B71000AFEE08AAEFEE057A2DEEA63A9DED05FAFA
:10B7200067EE6D8AAFEE073AEFEE268A66EE6A2A7A
:10B730009DED00FA2AEEA00AEFEE202A6EEE02EA54
:10B74000DDED060A23EECE5AE0EEA3EA2BEEA98A3F
:10B75000DDED023AAFEE060AA3EE848A24EE6B7AA0
:10B760006DEE246A9DED044A2FEECD6AA0EE825A5A
:10B77000A3EEA97AE4EE2F6AA4EE246A75EEA15A2C
:10B78000C6ED005A83ED001A83ED019A4E4447ED51
:10B79000017A87ED00AA4B4480ED003AC0ED018AA2
:10B7A0004F4482ED000A4844C2ED012AC5ED00EA8B
:10B7B00085ED015A4A44C1ED006A81ED016A4D44AC
:10B7C00084ED008A84ED017A49444C443FF6E6AEAC
:10B7D0000E9B08330E930D9B08330D930C9B08337F
:10B7E0000C930B9B08330B930A9B08330A93099B1A
:10B7F00008330993089B08330893079B0833079382
:10B80000119B08F1010843457FF465AE129BDDF8FA
:10B8100044B0DB009BB2129330E517B0BDEC108B47
:10B82000BDE8F08F036870B55E6A26B13346052225
:10B83000BDE87040184704460D464E1D00E02368E1
:10B840009B68204698470028F9D0236815F8011B0B
:10B850001B6820469847B542F1D170BD2DE9F047ED
:10B86000164D0746002095F9C59705F2CC7684B0B1
